{
  "contractName": "DedcoinCrowdsale",
  "abi": [
    {
      "constant": true,
      "inputs": [],
      "name": "hasClosed",
      "outputs": [
        {
          "name": "",
          "type": "bool"
        }
      ],
      "payable": false,
      "stateMutability": "view",
      "type": "function"
    },
    {
      "constant": true,
      "inputs": [],
      "name": "finalRate",
      "outputs": [
        {
          "name": "",
          "type": "uint256"
        }
      ],
      "payable": false,
      "stateMutability": "view",
      "type": "function"
    },
    {
      "constant": true,
      "inputs": [],
      "name": "rate",
      "outputs": [
        {
          "name": "",
          "type": "uint256"
        }
      ],
      "payable": false,
      "stateMutability": "view",
      "type": "function"
    },
    {
      "constant": true,
      "inputs": [],
      "name": "weiRaised",
      "outputs": [
        {
          "name": "",
          "type": "uint256"
        }
      ],
      "payable": false,
      "stateMutability": "view",
      "type": "function"
    },
    {
      "constant": true,
      "inputs": [],
      "name": "closingTime",
      "outputs": [
        {
          "name": "",
          "type": "uint256"
        }
      ],
      "payable": false,
      "stateMutability": "view",
      "type": "function"
    },
    {
      "constant": true,
      "inputs": [],
      "name": "wallet",
      "outputs": [
        {
          "name": "",
          "type": "address"
        }
      ],
      "payable": false,
      "stateMutability": "view",
      "type": "function"
    },
    {
      "constant": true,
      "inputs": [],
      "name": "initialRate",
      "outputs": [
        {
          "name": "",
          "type": "uint256"
        }
      ],
      "payable": false,
      "stateMutability": "view",
      "type": "function"
    },
    {
      "constant": true,
      "inputs": [],
      "name": "openingTime",
      "outputs": [
        {
          "name": "",
          "type": "uint256"
        }
      ],
      "payable": false,
      "stateMutability": "view",
      "type": "function"
    },
    {
      "constant": false,
      "inputs": [
        {
          "name": "_beneficiary",
          "type": "address"
        }
      ],
      "name": "buyTokens",
      "outputs": [],
      "payable": true,
      "stateMutability": "payable",
      "type": "function"
    },
    {
      "constant": true,
      "inputs": [],
      "name": "getCurrentRate",
      "outputs": [
        {
          "name": "",
          "type": "uint256"
        }
      ],
      "payable": false,
      "stateMutability": "view",
      "type": "function"
    },
    {
      "constant": true,
      "inputs": [],
      "name": "token",
      "outputs": [
        {
          "name": "",
          "type": "address"
        }
      ],
      "payable": false,
      "stateMutability": "view",
      "type": "function"
    },
    {
      "inputs": [
        {
          "name": "_initialRate",
          "type": "uint256"
        },
        {
          "name": "_finalRate",
          "type": "uint256"
        },
        {
          "name": "_openingTime",
          "type": "uint256"
        },
        {
          "name": "_closingTime",
          "type": "uint256"
        },
        {
          "name": "_rate",
          "type": "uint256"
        },
        {
          "name": "_wallet",
          "type": "address"
        },
        {
          "name": "_token",
          "type": "address"
        }
      ],
      "payable": false,
      "stateMutability": "nonpayable",
      "type": "constructor"
    },
    {
      "payable": true,
      "stateMutability": "payable",
      "type": "fallback"
    },
    {
      "anonymous": false,
      "inputs": [
        {
          "indexed": true,
          "name": "purchaser",
          "type": "address"
        },
        {
          "indexed": true,
          "name": "beneficiary",
          "type": "address"
        },
        {
          "indexed": false,
          "name": "value",
          "type": "uint256"
        },
        {
          "indexed": false,
          "name": "amount",
          "type": "uint256"
        }
      ],
      "name": "TokenPurchase",
      "type": "event"
    }
  ],
  "bytecode": "0x6060604052341561000f57600080fd5b60405160e080610958833981016040528080519060200190919080519060200190919080519060200190919080519060200190919080519060200190919080519060200190919080519060200190919050508686868686868660008311151561007757600080fd5b600073ffffffffffffffffffffffffffffffffffffffff168273ffffffffffffffffffffffffffffffffffffffff16141515156100b357600080fd5b600073ffffffffffffffffffffffffffffffffffffffff168173ffffffffffffffffffffffffffffffffffffffff16141515156100ef57600080fd5b8260028190555081600160006101000a81548173ffffffffffffffffffffffffffffffffffffffff021916908373ffffffffffffffffffffffffffffffffffffffff160217905550806000806101000a81548173ffffffffffffffffffffffffffffffffffffffff021916908373ffffffffffffffffffffffffffffffffffffffff16021790555050505042821015151561018957600080fd5b81811015151561019857600080fd5b816004819055508060058190555050508082111515156101b757600080fd5b816006819055508060078190555050505050505050505061077b806101dd6000396000f3006060604052600436106100af576000357c0100000000000000000000000000000000000000000000000000000000900463ffffffff1680631515bc2b146100ba57806321106109146100e75780632c4e722e146101105780634042b66f146101395780634b6753bc14610162578063521eb2731461018b5780639e51051f146101e0578063b7a8807c14610209578063ec8ac4d814610232578063f7fb07b014610260578063fc0c546a14610289575b6100b8336102de565b005b34156100c557600080fd5b6100cd6103ac565b604051808215151515815260200191505060405180910390f35b34156100f257600080fd5b6100fa6103b8565b6040518082815260200191505060405180910390f35b341561011b57600080fd5b6101236103be565b6040518082815260200191505060405180910390f35b341561014457600080fd5b61014c6103c4565b6040518082815260200191505060405180910390f35b341561016d57600080fd5b6101756103ca565b6040518082815260200191505060405180910390f35b341561019657600080fd5b61019e6103d0565b604051808273ffffffffffffffffffffffffffffffffffffffff1673ffffffffffffffffffffffffffffffffffffffff16815260200191505060405180910390f35b34156101eb57600080fd5b6101f36103f6565b6040518082815260200191505060405180910390f35b341561021457600080fd5b61021c6103fc565b6040518082815260200191505060405180910390f35b61025e600480803573ffffffffffffffffffffffffffffffffffffffff169060200190919050506102de565b005b341561026b57600080fd5b610273610402565b6040518082815260200191505060405180910390f35b341561029457600080fd5b61029c610492565b604051808273ffffffffffffffffffffffffffffffffffffffff1673ffffffffffffffffffffffffffffffffffffffff16815260200191505060405180910390f35b6000803491506102ee83836104b7565b6102f7826104e4565b905061030e8260035461050c90919063ffffffff16565b60038190555061031e838261052a565b8273ffffffffffffffffffffffffffffffffffffffff163373ffffffffffffffffffffffffffffffffffffffff167f623b3804fa71d67900d064613da8f94b9617215ee90799290593e1745087ad188484604051808381526020018281526020019250505060405180910390a36103958383610538565b61039d61053c565b6103a783836105a0565b505050565b60006005544211905090565b60075481565b60025481565b60035481565b60055481565b600160009054906101000a900473ffffffffffffffffffffffffffffffffffffffff1681565b60065481565b60045481565b60008060008061041d600454426105a490919063ffffffff16565b92506104366004546005546105a490919063ffffffff16565b915061044f6006546007546105a490919063ffffffff16565b905061048a6104798361046b84876105bd90919063ffffffff16565b6105f890919063ffffffff16565b6007546105a490919063ffffffff16565b935050505090565b6000809054906101000a900473ffffffffffffffffffffffffffffffffffffffff1681565b60045442101580156104cb57506005544211155b15156104d657600080fd5b6104e08282610613565b5050565b6000806104ef610402565b905061050483826105bd90919063ffffffff16565b915050919050565b600080828401905083811015151561052057fe5b8091505092915050565b6105348282610663565b5050565b5050565b600160009054906101000a900473ffffffffffffffffffffffffffffffffffffffff1673ffffffffffffffffffffffffffffffffffffffff166108fc349081150290604051600060405180830381858888f19350505050151561059e57600080fd5b565b5050565b60008282111515156105b257fe5b818303905092915050565b60008060008414156105d257600091506105f1565b82840290508284828115156105e357fe5b041415156105ed57fe5b8091505b5092915050565b600080828481151561060657fe5b0490508091505092915050565b600073ffffffffffffffffffffffffffffffffffffffff168273ffffffffffffffffffffffffffffffffffffffff161415151561064f57600080fd5b6000811415151561065f57600080fd5b5050565b6000809054906101000a900473ffffffffffffffffffffffffffffffffffffffff1673ffffffffffffffffffffffffffffffffffffffff1663a9059cbb83836000604051602001526040518363ffffffff167c0100000000000000000000000000000000000000000000000000000000028152600401808373ffffffffffffffffffffffffffffffffffffffff1673ffffffffffffffffffffffffffffffffffffffff16815260200182815260200192505050602060405180830381600087803b151561072f57600080fd5b6102c65a03f1151561074057600080fd5b505050604051805190505050505600a165627a7a72305820abd7967a55e8641ddb22747a8d7c441fbeb36b3c01023b5018ccac16a854b0ac0029",
  "source": "pragma solidity ^0.4.18;\n\nimport './Dedcoin.sol';\nimport './DecreasingPriceCrowdsale.sol';\n\n\ncontract DedcoinCrowdsale is DecreasingPriceCrowdsale {\n\n  function DedcoinCrowdsale(uint256 _initialRate, uint256 _finalRate, uint256 _openingTime, uint256 _closingTime, uint256 _rate, address _wallet, MintableToken _token)\n    DecreasingPriceCrowdsale(_initialRate, _finalRate)\n    TimedCrowdsale(_openingTime, _closingTime)\n    Crowdsale(_rate, _wallet, _token) {\n  }\n\n  // creates the token to be sold.\n  // override this method to have crowdsale of a specific MintableToken token.\n  function createTokenContract() internal returns (MintableToken) {\n    return new Dedcoin();\n  }\n\n}\n",
  "sourcePath": "/Users/j/Coding/dedcoin/contracts/DedcoinCrowdsale.sol",
  "compiler": {
    "name": "solc",
    "version": "0.4.19+commit.c4cbbb05.Emscripten.clang"
  },
  "schemaVersion": "1.0.1",
  "updatedAt": "2018-02-22T23:43:07.843Z"
}